:100000000000012001030000290300002B03000071
:100010002D0300002F03000031030000000000004A
:10002000000000000000000000000000330300009A
:100030003503000000000000370300003903000012
:100040003B0300003B030000C11D0000211E000017
:100050003B0300003B0300003B0300003B030000A8
:100060003B0300003B0300003B0300003B03000098
:100070003B0300003B0300003B0300003B03000088
:100080003B0300003B0300003B0300003B03000078
:100090003B0300003B0300003B0300003B03000068
:1000A0003B0300003B0300003B0300003B03000058
:1000B0003B0300003B0300000000000000000000C4
:1000C0003B0300003B0300003B0300003B03000038
:1000D0003B0300003B0300003B0300000000000066
:1000E0000000000000000000000000000000000010
:1000F0000000000000000000000000000000000000
:1001000000000000000000000000000000000000EF
:1001100000000000000000000000000000000000DF
:1001200000000000000000000000000000000000CF
:1001300000000000000000000000000000000000BF
:1001400000000000000000000000000000000000AF
:10015000000000000000000000000000000000009F
:10016000000000000000000000000000000000008F
:10017000000000000000000000000000000000007F
:10018000000000000000000000000000000000006F
:10019000000000000000000000000000000000005F
:1001A000000000000000000000000000000000004F
:1001B000000000000000000000000000000000003F
:1001C000000000000000000000000000000000002F
:1001D000000000000000000000000000000000001F
:1001E000000000000000000000000000000000000F
:1001F00000000000000000000000000000000000FF
:100200000348044B834202D0034B03B118477047A5
:1002100088000020880000200000000005480649F2
:10022000091A891001EBD171491002D0034B03B1B7
:100230001847704788000020880000200000000058
:1002400010B5064C237843B9FFF7DAFF044B13B11E
:100250000448AFF300800123237010BD8800002004
:10026000000000001436000008B5054B1BB105491D
:100270000548AFF30080BDE80840FFF7CFBF00BFDF
:10028000000000008C00002014360000154B002BED
:1002900008BF134B9D46A3F5803A00218B460F46BD
:1002A0001348144A121A03F015F80F4B002B00D014
:1002B00098470E4B002B00D09847002000210400E7
:1002C0000D000D48002802D00C48AFF3008002F06A
:1002D000CFFF2000290002F0F1FC02F0B5FF00BFC3
:1002E00000000800000001200000000000000000E5
:1002F000880000202C070020000000000000000003
:100300000649074A074B9B1A03DD043BC858D050E7
:10031000FBDC02F02BFDFFF7B9FF00006C3600009C
:100320000000002088000020FEE7FEE7FEE7FEE771
:10033000FEE7FEE7FEE7FEE7FEE7FEE7F0B595B075
:10034000002415460F4608461E4601F07DFB384640
:1003500023460895082205A91A9D09960D950A9429
:100360008DF82C400C9401F0D3FB9DF814308DF8DF
:100370001140DDE9061003F00302012ACDE9020174
:1003800027D0022A04D0384601F062FB15B0F0BD38
:10039000BDF81650C3F3C2038DF81030AD0908261E
:1003A000082D2C4628BF0824334622460EA938467D
:1003B00001F0AEFB2D1B214608AB02AA0EA8264475
:1003C00000F0F0FD002DEBD1384601F041FB15B0F7
:1003D000F0BDBDF81460059DC6F38316C3F3C204D7
:1003E000B2000EA9384608238DF81040C5F39525B4
:1003F00001F08EFB08AB324628460EA9009302ABF3
:1004000000F05AFD384601F023FB15B0F0BD00BFE7
:10041000014B01221A707047E8000020704700BFAE
:1004200000B583B0044B0093044A4023FFF786FFD6
:1004300003B05DF804FB00BF41040000A8000020E9
:1004400038B50E480E4D03780E4CEB5C0025D2B249
:10045000257053B1043002F0DFFB58B90A4B1B780A
:1004600013B12378002BFCD038BD0C3002F098F982
:100470000028F3D000F014FEF0E700BF00000020D9
:1004800028070020E8000020A400002030B5144810
:10049000144A0378D35C89B0BBB1043002F054FB3A
:1004A000114D0FCD6C460FC495E80F00062584E86A
:1004B0000F00002269460A48009501F041FC40B94E
:1004C0000A4B00221A7009B030BD0C3002F002F95C
:1004D000E6E700F0E5FD054B00221A7009B030BDDB
:1004E000000000202807002010330000A400002096
:1004F00030B50E4D0FCD89B06C460FC495E80F0096
:10050000062584E80F000A4A0A480095694601F06A
:1005100017FC20B9084B01221A7009B030BD00F059
:10052000BFFD054B01221A7009B030BD1033000029
:100530001104000000000020A400002008B5FFF70F
:10054000D7FF0421034800F027FC034B01225A7116
:1005500008BD00BF403600001400002038B50C4B29
:100560000C48002400250022FF21C3E90045C3F800
:100570001824996083F82024C3F8142401F016FA93
:10058000044610B9044801F0F7FA204638BD00BF10
:10059000C00100205036000050330000A9B1124BBA
:1005A00012495B1ADB081AD030B4114C22888242FF
:1005B00017D0002203E034F8225085420AD00132DD
:1005C0009342F8D1002030BC7047084A02EBC002C9
:1005D0001068704701EBC202106830BC70471846C3
:1005E00070470A46F8E700BF4036000018360000A2
:1005F00088000020094B013903EBC00003290BD808
:10060000DFE801F0020806040220704740797047D5
:1006100000797047042070470020704718360000AA
:100620002DE9F04F9D4CD4E900239A4289B000F0A7
:1006300030810023C4F81834BFF34F8FD4E901355B
:1006400003EA0501CA1C04EB820614F822205007B5
:100650001BD52768327802F00302012A00F00781D7
:10066000022A03D17288023303EB921303EA0501D5
:10067000D4F81804CA1C04EB820630B99F4240F239
:10068000048114F822205207E4D404EB81015A1C9F
:10069000C96802912A4004EB820201F00301D2688A
:1006A0000392022903F1020600F00281012900F001
:1006B0006581D4F810543DB12B6828469B68984753
:1006C000EB681D68002DF7D1754A764BD4F8088089
:1006D0009B1ADB080020019300F02AFDD4E90132C7
:1006E000D4F8009013440133A3EB0903012B00F26B
:1006F00094816D4D2F1FA5F108060121284600F0B9
:1007000033FD384600F048FD304600F045FDD4E9A1
:10071000013E03EA0E01C81C04EB800214F820001D
:1007200010F0040000F0A08003F1020C92F800B079
:100730000BF0030BBBF1010FE24600F09080BBF120
:10074000020F7CD0CA1C04EB82020028EED104EB1D
:1007500081010133CA68059203EA0E0304EB8303A7
:1007600002F00302012AD96800F08780022A5CD1D6
:10077000BDF816309B0903334FEA114B0AEB930A7D
:10078000304600F015FD5946002856D02846C4F8DA
:1007900004A000F0E9FCD4E90132216813440133DC
:1007A0005B1A012BA9D90A4003320523023100202C
:1007B00044F82230216000F0C3FC00213A4800F0E8
:1007C000C9FC80F3100009F1010303EA0803BDF836
:1007D000042004EB830308EA090808F1030842EA4D
:1007E0000042DA6054F82820304B63F39F2222F451
:1007F0007F7323F0030343F0110344F8282024F807
:10080000283094F820343BB9D4E90030C01A18BF1E
:10081000012009B0BDE8F08FFFF702FF0028F3D0F8
:10082000FFF7FEFE0028F7D1EEE7304600F0C0FCEF
:100830004FF0000B59460028A8D12846A9E7538855
:100840000CEB93130EEA0301CA1C03F1020C14F81B
:100850002200E24604EB820200F0040075E71388F0
:10086000C3F383136344EDE703F1020A6FE73288B1
:100870000233C2F383121344F8E6BDF81430C3F315
:1008800083134FEA114B9A447AE7676009B0BDE8D9
:10089000F08F002009B0BDE8F08F00BFC00100203C
:1008A0001836000038360000DC0500205C330000FC
:1008B000BDF80A305F484FEA9319B9F1500FC846A6
:1008C00028BF4FF0500868F38F1308F10801ADF806
:1008D0000A3001F06DF8074600283FF4EAAE01F057
:1008E000B3F8082200230DEB0201384601F0DCF8D2
:1008F00025EA060301339B0098457BD9002B00F0C5
:100900008E8005EA0601A8EB0308DDB2033104EB93
:1009100081012A46082338465FFA88F801F0C4F8B6
:10092000424605F108034449384601F0BDF809F193
:10093000030906EB9909D4F81834002B69D1D4F8CF
:10094000105465B1EB685A7928463946002A5CD0C4
:100950002B681B689847EB681D68002DF2D138465C
:1009600001F076F8002000F0E3FBD4F818340BB95E
:10097000C4F80490002000F0E3FB45E7BDF8082030
:100980002C48C2F38313062B28BF062363F3891276
:1009900002339900ADF8082001F00AF80746002854
:1009A0003FF487AE01F050F8082200230DEB02015E
:1009B000384601F079F8BDF8083013F4707F36D06E
:1009C0004FF0000805EA06014FEA880303310833B7
:1009D00004EB81010422384601F066F8BDF80830C6
:1009E00008F10108C3F3831306F1010943454E469C
:1009F000E8D8A0E705EA0601033104EB810142468D
:100A00000823384601F050F891E71D68002D99D170
:100A1000A5E7384601F01CF8F6E64946C3E65FFA5A
:100A200088F208230449384601F03EF87FE7B146D2
:100A300081E700BF50360000CC0100202DE9F04FC7
:100A4000654C87B0804600200191A56800F070FBDE
:100A5000D4E9012326681A440132921B012A00F2CC
:100A6000B88004F21C4704F214490121384600F012
:100A70007BFB5A4800F090FB484600F08DFBD4E920
:100A8000013E03EA0E00C21C04EB820114F822208E
:100A900012F0040200F09A8003F1020C91F800B009
:100AA0000BF0030BBBF1010FE24600F08A80BBF1B3
:100AB000020F00F1030B74D004EB8B01002AEDD17F
:100AC00004EB80000133C268039203EA0E0304EBD7
:100AD000830302F00302012AD9685AD0022A55D1B1
:100AE000BDF80E309B0903334FEA114B0AEB930A12
:100AF000484600F05DFB5946002845D03846C4F80A
:100B000004A000F031FBD4E901132268194401313B
:100B1000891A0129A9D91340033302320521002083
:100B200044F82310226000F00BFB00212C4800F059
:100B300011FB80F31000731C2B4004EB83030004B3
:100B40003540033540EA1840D86014F8253068F382
:100B5000C50304F82530019B54F8252063F39F2238
:100B600022F4717323F0030343F0010344F82520BA
:100B700024F8253094F820341BB1FFF751FD0028EC
:100B8000FBD107B0BDE8F08F3846BAE74FF0000B55
:100B9000AEE7BDF80C30C3F383134FEA114B9A4410
:100BA000A6E74B880CEB93130EEA0300C11C03F17C
:100BB000020C14F82120E24604EB810102F0040249
:100BC0007CE70B88C3F383136344EDE703F1020A68
:100BD00076E732469FE700BFC0010020D80500201D
:100BE000DC0500202DE9F04F684C87B080460020DE
:100BF000CDE90012A56800F09BFAD4E9012326682C
:100C00001A440132921B022A00F2BE8004F21C47F1
:100C100004F214490121384600F0A6FA5C4800F0BD
:100C2000BBFA484600F0B8FAD4E9013E03EA0E00E8
:100C3000C21C04EB820114F8222012F0040200F01E
:100C4000A08003F1020C91F800B00BF0030BBBF194
:100C5000010FE24600F09080BBF1020F00F1030BA0
:100C60007AD004EB8B01002AEDD104EB8000013334
:100C7000C268039203EA0E0304EB830302F003024B
:100C8000012AD96860D0022A5BD1BDF80E309B09D9
:100C900003334FEA114B0AEB930A484600F088FAF7
:100CA000594600284BD03846C4F804A000F05CFA3E
:100CB000D4E90113226819440131891A0229A9D9FA
:100CC0001340033303324521002044F823102260EF
:100CD00000F036FAB31C2B4004EB8303019A2D4835
:100CE000DA60002100F036FA80F31000731C2B400C
:100CF00004EB830300043540033540EA1840D86014
:100D000014F8253068F3C50304F82530009B54F827
:100D1000252063F39F2222F4717323F0030343F031
:100D2000410344F8252024F8253094F820341BB1E1
:100D3000FFF776FC0028FBD107B0BDE8F08F3846FE
:100D4000B4E74FF0000BA8E7BDF80C30C3F38313F2
:100D50004FEA114B9A44A0E74B880CEB93130EEA31
:100D60000300C11C03F1020C14F82120E24604EB3D
:100D7000810102F0040276E70B88C3F38313634416
:100D8000EDE703F1020A70E7324699E7C00100205F
:100D9000D8050020DC050020F0B41B4ED6F8103436
:100DA0000746002B2DD0DC6825790021A942084692
:100DB00017D0234603E0DB681A798A4211D01B68FA
:100DC000002BF8D1FB681871D6F810349BB1DA68A3
:100DD000FB6812681A60D6F81034DB681F60F0BC3C
:100DE0007047092901F1010301D01946DEE74FF0F0
:100DF000FF30F0BC7047C6F81074FA681360F0BC9E
:100E000070471846DEE700BFC001002038B5094B27
:100E1000D3F81044012583F820544CB1E3685D7188
:100E2000236820465B689847E3681C68002CF5D16E
:100E300038BD00BFC001002030B5C38883B0044670
:100E40000D4613BB217A05291DD0637AA08873B99A
:100E5000124B53F821400021FFF7A0FB1049034635
:100E60002246284603B0BDE8304000F011BAFFF733
:100E7000C1FB0C4B0C4953F82020284600F008FA1F
:100E8000217AA088E4E703B030BD084A00920849FF
:100E9000084A284600F0FCF9D4E700BFE833000018
:100EA000DC33000074330000D8330000D03300007E
:100EB000B8330000B03300002DE9F04385B01D4683
:100EC0000C9C002381460E46174694F80C80237331
:100ED00021462846FFF7B0FF062F09D8DFE807F0C4
:100EE000042E343B444F1F004946204600F0D0F901
:100EF0002B7A052B05D06B7A5BB92749204600F089
:100F0000C7F9204600F0B8F984F80C8005B0BDE8B8
:100F1000F083224A2249204600F0BAF9EDE7D6E9EB
:100F20000413F2680393B3680291CDE90032494695
:100F3000D6E90023204600F0ABF9D9E732684946EC
:100F4000204600F0A5F9D3E74946D6E9002320461C
:100F500000F09EF9CCE7B36800934946D6E9002338
:100F6000204600F095F9C3E7D6E9023201920093DA
:100F70004946D6E90023204600F08AF9B8E7D6E9C9
:100F80000321B3680291CDE900324946D6E9002336
:100F9000204600F07DF9ABE7AC330000D033000011
:100FA000D8330000082900D970472DE9F04F1D46BD
:100FB00083B000241B7B2C7307460E46104629463F
:100FC00091460193DFF8C8A0DFF8C880FFF734FF2F
:100FD00005E03A5D013400F05BF9082C09D0A64227
:100FE00041462846F5D85146013400F051F9082C05
:100FF000F5D12249DFF8A0A0214CDFF8A0802846D7
:1010000000F046F94FF0000B0EE012F8081011F056
:10101000970F08BF2E22214628460BF1010B00F046
:1010200037F9BBF1080F10D05E4505D917F80B2032
:101030007E2AEAD92E22EEE7514628460BF1010B13
:1010400000F026F9BBF1080FEED199F80830052B16
:1010500002D099F809305BB90A49284600F018F91E
:10106000284600F009F9019B2B7303B0BDE8F08F0F
:10107000054A0649284600F00BF9EDE7A4330000C5
:10108000A8330000AC330000D0330000D833000098
:10109000A033000098330000E43300000D35000059
:1010A00000B585B000230390194601AA44F201005F
:1010B000CDE9013300F004F805B05DF804FB00BF92
:1010C00010B572B6FFF7A2FEFFF7AAFA0028FBD10F
:1010D000104B114C1149E41AE408240444F00100B7
:1010E000FFF7ACFC0E4B1B68DB0700D500BE44F0DD
:1010F00002000C49FFF7A2FCBFF34F8F0A490B4BCC
:10110000CA6802F4E0621343CB60BFF34F8F00BFA5
:10111000FDE700BF183600003836000054340000E8
:10112000F0ED00E06034000000ED00E00400FA059E
:1011300072B6024A13680133136070477C060020C0
:10114000034A1368013B136003B962B6704700BFDE
:101150007C06002050E8002F0B4640E8003C9CF045
:10116000000FF7D11046704750E8003F03EB010233
:1011700040E8002C9CF0000FF6D11046704700BFED
:1011800050E8003FA3EB010240E8002C9CF0000F68
:10119000F6D11046704700BF012350E8002F42EA05
:1011A000030C40E800C191F0000FF6D16046704793
:1011B000002350E800CF0CEA030240E8002191F040
:1011C000000FF6D160467047B8B130B4D0E90112D3
:1011D000521A0468D2B2531E2160DBB242B10168D8
:1011E0000A685C1E551C0D601370E3B2FF2BF6D12C
:1011F00003680020187130BC70470E20704700BF94
:1012000038B504460020FFF793FFD4E900311A688F
:101210008A4215D9511E19602168A3680868258A79
:1012200012F8012CE4681B1A0879DBB2984205FB1E
:10123000024400D20B710020FFF782FF204638BD28
:1012400000240020FFF77CFF204638BD38B5054656
:1012500000200C46FFF76CFF2A681368591C1160C8
:10126000E9682A8A641AB4FBF2F41C700020BDE815
:101270003840FFF765BF00BF826842B110B5044631
:1012800043690168006998470023A36010BD704757
:101290000EB400B582B0039921B104AB01AA019349
:1012A00000F08EF802B05DF804EB03B0704700BFA9
:1012B0002DE9F84F88469045164605461F46DDE95C
:1012C0000AB177D343464FF00109B3FBF6F39E42D0
:1012D00009F10109F9D9B94538BFB94611F0010A38
:1012E000AA6802D1BBF1000F45D1012402E0013F01
:1012F00006FB04F4012FFAD8B8FBF4F18E42F7D9BB
:101300002E4F07E0B442B4FBF6F315D3B8FBF3F16C
:10131000AA681C46531CAB602B68785C9854D5E9CE
:1013200001329A4204FB1188ECD32846FFF7A4FF50
:10133000B4FBF6F3B442E9D2BAF1000F15D0BBF119
:10134000000F12D0CB4510D92024AB682A68591C55
:10135000A960D454D5E901329A420BF1FF3B06D281
:10136000BBF1000F01D0CB45EFD1BDE8F88F284687
:10137000FFF782FFF4E78B0717D42024CB45B4D9BD
:101380002B68511CA9609C54D5E901329A420BF19B
:10139000FF3B05D2BBF1000FA7D0CB45F0D1A4E7AE
:1013A0002846FFF769FFAA68F4E7002F0CBF302436
:1013B0002024E3E74FF001098DE700BF70340000FF
:1013C000002900F042822DE9F04F054683B0934694
:1013D0000C460B7801E0237893B1013483B1252BBF
:1013E00015D0AA682968501CA8608B54D5E9013231
:1013F0009A42F0D32846FFF73FFF2378002BECD129
:101400002B7B002B40F0198103B0BDE8F08F214603
:10141000002711F8012B2D2A00F0E580302A00F07A
:10142000E6802B2A00F0D6802A2A00F0E480A2F180
:101430003006F3B2092B03D903E2A3F130060146CB
:10144000084606EB860310F8012BA2F13004092CA4
:1014500002EB4303F1D92E2A00F0D9804FF00008A7
:1014600002F0FB03682B01F1010405D114F8012BF4
:1014700002F0FB03682BF9D0253A532AABD801A31D
:1014800053F822F063160000D7130000D7130000B2
:10149000D7130000D7130000D7130000D7130000A4
:1014A000D7130000D7130000D7130000D713000094
:1014B000D7130000D7130000D7130000D713000084
:1014C000D7130000D7130000D7130000D713000074
:1014D000D7130000D7130000D7130000D713000064
:1014E000D7130000D7130000D7130000D713000054
:1014F000D7130000D7130000D7130000D713000044
:10150000D7130000D7130000D7130000D713000033
:10151000D7130000D7130000D7130000D713000023
:10152000D7130000D7130000D7130000D713000013
:10153000D7130000D7130000D7130000D713000003
:10154000D7130000D7130000D7130000D7130000F3
:101550007D160000D7130000D7130000D71300003A
:10156000D7130000D7130000D7130000D7130000D3
:10157000D7130000D7130000D713000099160000FE
:10158000BB160000D7130000D7130000D7130000CC
:10159000D7130000BB160000D7130000D7130000BC
:1015A000D7130000D7130000D7130000D713000093
:1015B00049170000D7130000D7130000C31700001D
:1015C000D713000047160000D7130000D713000000
:1015D0007D16000047F004070C46214611F8012B48
:1015E0002D2A7FF41BAF47F001070C46F5E747F0C3
:1015F00002070C46F1E7DBF800301A1DCBF800209B
:1016000062781E682E2A04F102007FF427AF4A7820
:10161000A2F13003092B01464FF000083FF620AF3E
:1016200008EB880802EB480811F8012FA2F13003FB
:10163000092BA8F13008F3D912E7284603B0BDE81A
:10164000F04FFFF719BEDBF800301A1DCBF8002071
:1016500019680197434600960A222846FFF728FE9C
:10166000B9E6AB682A68591CA9604FF02501D1542E
:10167000D5E901329A42FFF4AEAEBBE6DBF80030AA
:101680001A1DCBF8002019680197434600961022D6
:101690002846FFF70DFE9EE6DBF80020131DCBF871
:1016A0000030AB6829681278581CA860CA54D5E984
:1016B00001329A42FFF48FAE9CE6DBF800301A1D2F
:1016C000CBF80020D3F8009089EAE972A2EBE97226
:1016D000092A4FF0010A01DC09E01A46B14B632ADE
:1016E000A3FB02130AF1010A4FEAD303F5DCC2455A
:1016F00038BFC24607F00203002E40F0A780002B3F
:1017000040F0FA800026B9F1000FC0F2E2807A07BB
:101710000CD5AA682B68501C2B21A8609954D5E9D8
:1017200001329A4202D32846FFF7A6FD07F00303D1
:10173000022B00F00A81CDE90067434649460A22A0
:101740002846FFF7B5FD46E6DBF80020131DCBF871
:101750000030AB6829681768581C3022A860CA544A
:10176000D5E90123934280F012812A68581C782120
:10177000A860D154D5E90123934280F003810F2F53
:1017800003D93A4612090F2AFCD84FF0805606E0DA
:101790000F2E4FEA16137FF61EAE1E46AB68296861
:1017A000B7FBF6F2581CA8607F48805CC854D5E9A6
:1017B0000131994206FB1277EAD32846FFF75CFD18
:1017C000E6E7DBF800301A1DCBF80020D3F80080E4
:1017D000FB075FD598F80020002A00F0E180AB6895
:1017E0004746C8F101092968581CA860CA54D5E9C0
:1017F0000123934209EB07081AD217F8012F002A98
:10180000F1D146457FF6E7AD202702E046453FF49B
:10181000E2ADAB682A68591CA960D754D5E90132FA
:101820009A4206F1FF36F1D32846FFF725FDEDE792
:101830002846FFF721FD17F8012F002AE1D0AB68F9
:10184000D1E708460026214605E67047B9F1000FAA
:1018500001DB780700D5013E002B48D1F9073FF5A1
:1018600052AF002E3FF44EAFB245BFF44CAF202133
:10187000AA682B68501CA8609954D5E901329A4295
:1018800006F1FF3641D2002E3FF43CAFB245EFD116
:10189000564638E7B8F1000F35D0404601F022FD3A
:1018A0000746BE4236D9AEB34FF0200901E0BE4232
:1018B00030D0AB682A68591CA96002F80390D5E9BA
:1018C00001329A4206F1FF36F1D32846FFF7D4FCE5
:1018D000EDE7AA682B68501C2D21A8609954D5E922
:1018E00001329A42C9F10009FFF420AF1BE7B8F1B9
:1018F000000F3FF408AFB1E7B8F1000F4ED0FB077F
:101900003FF501AFFEE64746CBE72846FFF7B4FCBC
:101910002021B8E798F80020002A3FF45CADAB68BE
:101920002968581CA860CA54D5E90123934204D2FF
:1019300018F8012F002AF3D14DE52846FFF79CFC4B
:1019400018F8012F002AEAD145E5B8F1000F7FF41D
:10195000F2AE0EB3B245BFF4EEAE3021AA682B68EA
:10196000501CA8609954D5E901329A4206F1FF361D
:1019700003D28EB1B245F1D1DDE62846FFF77CFCFB
:101980003021F6E72846FFF777FCAB68F7E62846F4
:10199000FFF772FCAB68E8E60026CCE64646B2E606
:1019A00090462EE7CDCCCCCC70340000FFF70CBCB9
:1019B0002DE9F041058ACF1C043D2F440646B7FBB4
:1019C000F5F7FFF71DFC002834D0FFB24FF4807309
:1019D000013F0446C580066083802CD080460025E8
:1019E00009E06379AF4203F101036371C8F80000B5
:1019F000066080461FD03046FFF702FC0135002804
:101A0000EFD194F805802768B8F1010316D03D4660
:101A1000013083422D68FBD1B8F1000F0AD00026B7
:101A200001E03C463F68214601362846FFF70EFCA0
:101A3000B045F6D800242046BDE8F081214638465E
:101A4000FFF704FCF6E700BF04300121FFF78CBB71
:101A50002DE9F041012104460430FFF791FBC0B2AB
:101A600008B1BDE8F08194F805802568B8F101035C
:101A700014D02E46013083423668FBD1B8F1000FF6
:101A8000EFD0002701E02C462D6821460137304673
:101A9000FFF7DCFBB845F6D8BDE8F08121462846C3
:101AA000BDE8F041FFF7D2BB2DE9F8430546C688F3
:101AB0004079144606FB00F2043A04EB030C1F1DA8
:101AC000624538BFD41ABE428846B7FBF6F106FB22
:101AD000117002D801392D68FCD1371AA74228BFEE
:101AE00027469CB14FF000090430E41B28443A46D5
:101AF00008EB090101F0E0FBA642B9442D68374626
:101B00004FF0000028BF2746002CEDD1BDE8F88338
:101B10002DE9F8430546C6884079144606FB00F2D5
:101B2000043A04EB030C1F1D624538BFD41ABE42B1
:101B30008846B7FBF6F006FB107102D801382D6815
:101B4000FCD1771AA74228BF27469CB14FF0000965
:101B500004312944E41B3A4608EB090001F0ACFBD0
:101B6000A642B9442D6837464FF0000128BF2746EA
:101B7000002CEDD1BDE8F883826800239360826871
:101B80001361826853618268D3608268536082689F
:101B90001360704730B585B0047885888DF80040B3
:101BA0008468ADF804508DF80640C568074A084BB4
:101BB0008DF80750D0E9040453F8213052F8211071
:101BC000CDE902046846984705B030BD8006002084
:101BD000880600202DE9F04F824606783A4D3B48B2
:101BE00045F826300C46497B40F8262081B09346C4
:101BF00069B9374ABBF1000F334621460AF10400A8
:101C000008BF002201B0BDE8F04F00F0C7B923685B
:101C1000304A4FF0A04503F5E07340F20C6145F8FF
:101C20002310636803F5E073012745F82310236848
:101C300007FA03F3C5F80835636807FA03F3C5F834
:101C40000835236803F5E07340F20D6145F8231071
:101C5000636803F5E07342EA070845F823104FF480
:101C60008070C0474FF000096268D5F81035D34046
:101C7000DB074FF4807022D4236807FA03F3C5F81A
:101C80000C35C047236807FA03F309F10109C5F8C9
:101C900008354FF48070C047B9F1090FE4D162688C
:101CA00001254FF0A04705FA02F2C7F80C254FF4C2
:101CB0008070C04763689D40C7F8085599E7B9F13F
:101CC000000FEDD195E700BF8006002088060020B8
:101CD000951B00008034000030B585B0047845685D
:101CE0008DF80040D0E90240064A074B039053F8B4
:101CF000213001958DF8084052F821106846984728
:101D000005B030BD900600209406002030B585B0A7
:101D1000047845688DF80040D0E90240064A074B38
:101D2000039053F8213001958DF8084052F82110A6
:101D30006846984705B030BD900600209406002004
:101D4000F0B51A4B06781A4D0C6991F81DE045F86C
:101D500026400746174803F806E040F826200C46C0
:101D600094460FCC89B06D460FC594E80F0085E806
:101D70000F000496BEF1000F0BD0BCF1000F0E4A0D
:101D8000694607F1040008BF002200F001FE09B017
:101D9000F0BDBCF1000F094A694607F10C0008BF0D
:101DA000002200F0CDFB09B0F0BD00BF28070020E5
:101DB0009006002094060020D91C00000D1D000094
:101DC000014B1B68184700BF9806002038B50C4B24
:101DD000984213D100200D46FFF7AAF9094B1C7950
:101DE00024B10020FFF7ACF9112038BD01222046B4
:101DF0001D601A71FFF7A4F9204638BD002038BDD8
:101E00000020004098060020034B984203D1034B6A
:101E100000221A601A7170470020004098060020C6
:101E2000F0B55B4BD3F824218DB052B10022C3F83A
:101E30002421D3F824210592059AD3F80421002AFD
:101E40007FD0534D534CD5F80431002B48D000239C
:101E5000C5F8043104F10C070FCF07AED5F804C163
:101E60003F68CDF810C00FC694F82E30049A376042
:101E700094F83020002B55D0237B012B6FD0D5F860
:101E80004C150891022B6DD1D5F83C15404B0991AA
:101E90000021C3F86011D3F8600102900298C3F8E2
:101EA0005C11D3F85C310393039B394B3A48002112
:101EB000C3F80012A160C3F808033549D1F8C4344F
:101EC000C1F8C434990726D501238DF818300AB912
:101ED00084F82F20D4E9003106A898470DB0F0BD52
:101EE000C5F84831D5F84821237B0192019A002B8F
:101EF0003CD104F10C070FCF07AE0FC694F8302089
:101F00003B683360002AD8D1234BC5F80022A26079
:101F1000C5F80833D1E713F0040318BF02238DF886
:101F20001830D4E7C5F86031D5F8601102910299F4
:101F3000C5F85C31D5F85C310393039B002ABCD112
:101F4000B3E7144A02219068C3F8080391609268CD
:101F5000C3F8042301221A625A610DB0F0BDD5F80E
:101F60003C3508930A4BD3F84C158FE74FF40071BA
:101F700040F20222084BC5F80012A260C5F80833EF
:101F8000A368C5F804330123AB602B620DB0F0BD2C
:101F900000300040A006002002029C012DE9F84F0D
:101FA0000779DFF8E490342606FB07F609EB06050F
:101FB00095F82D40002C55D10C4683462F490068DA
:101FC0009A469046FFF702FF002854D149F8068050
:101FD000A860C5F804A085F82F0085F83000637B61
:101FE00085F8323023684FF0A04203F5E07340F2E9
:101FF0000C6142F82310636803F5E07342F8231084
:10200000D4E90021DBF80030C3F80825C3F80C152B
:10201000A268C3F82425B8F1000F1BD0DBF800201C
:10202000237B120B51B25B010029DBB21DDB01F1F6
:10203000604101F5614181F80033DBF80030104C5C
:102040001B0B5AB2520903F01F03012101FA03F3DB
:1020500044F82230342303FB0797012387F82D30FF
:10206000BDE8F88F0820BDE8F88F064902F00F029E
:1020700011440B76E1E71120BDE8F88F211E000026
:1020800000E100E0FCEC00E0A00600200379064936
:102090000268342000FB03130220062183F82D0080
:1020A000C2F80015704700BFA00600202DE9F04FD0
:1020B0008DB094469DF85840002C02F060444FF0DB
:1020C0000002994614BF20231346B4F1005F019328
:1020D000CDE90722CDE909220B9259D190F804806D
:1020E000DFF844E105684E4BC5F80833342606FB9B
:1020F00008E696F82F3003F0FF07002B5BD18DF830
:102100001D10CDF82090CDF828C007AC8A460FCC22
:102110004FF0010B86F82FB0C5F888A5C5F80471FB
:10212000D5F804A1CDF810A006F10C0AAAE80F001A
:10213000049BC5F82471D5F8243105932368CAF8A7
:102140000030019B059A86F83070C5F85075C5F8C7
:102150004075C5F844C5C5F84895EBB94FF4007211
:1021600040F20223C5F800224FF48270B36034239A
:10217000012203FB08F32A62AA605EF8031073448D
:1021800001B39B68C5F8043300200DB0BDE8F08FA3
:1021900010200DB0BDE8F08F224B4FF48072C5F8CF
:1021A0000022B360C5F84871D5F848310393039B0A
:1021B0004FF4A470DBE7B368C5F8043311200DB009
:1021C000BDE8F08F1146284402E0D5F82421D2B9A9
:1021D0000368002BF9D0342303FB08EED5F8C43490
:1021E000C5F8C43400228EF82F20BBB113F0020FC3
:1021F00048F2012048F2022208BF032013F0040F26
:1022000018BF1046C5E7C5F82431D5F82431069328
:10221000069B29624FF482706961D4E71846B8E7DB
:1022200002029C0100020400A00600202DE9F04FEC
:1022300002F060448BB09146B4F1005F4FF00002B1
:10224000CDF81A20CDF81620CDF81E20CDF822208A
:10225000ADF8262057D10279DFF820B10468019249
:102260004FF0340E0EFB02FE9A460BEB0E0C424B67
:10227000C4F808339CF82F3003F0FF05002B68D119
:102280004FF001088DF81510CDF818A0CDF820906A
:102290008DF8148005AF0E460FCF8CF82F80C4F850
:1022A0008865C4F80451D4F8046102960CF10C0658
:1022B0000FC6029BC4F82451D4F824310393396823
:1022C00003988CF8305040F202234FF48052C4F847
:1022D00050553160C4F84055C4F83495C4F838A559
:1022E000C4F80022CCF80830C4F82080C4F800807C
:1022F0005BF80E305BB1DCF80830C4F804332846D4
:102300000BB0BDE8F08F10200BB0BDE8F08F434656
:1023100002E0D4F8241121BBD4F80421002AF8D01B
:10232000019A342303FB02BBD4F8C434C4F8C43488
:1023300000228BF82F20EBB113F0020F48F201209E
:1023400048F2022208BF032013F0040F18BF104602
:10235000D6E7DCF80830C4F8043311200BB0BDE830
:10236000F08FC4F82421D4F824210492049A236223
:102370006361D1E71846C3E702029C01A006002072
:1023800030B56D4AD2F8043399058BB066D5D2F8D2
:102390002431002B62D00023C2F82431D2F824313A
:1023A00003934FF40171654B0398C2F8081393F837
:1023B000291009B9012151605F4902228DF81820C6
:1023C000D1F88024C1F880249869D9680992002244
:1023D000CDE90710C3E90622D3E9001406A8A047F7
:1023E000554AD2F81C31C3B1544B186A5969884216
:1023F00069D293F8280000F0FF04002863D1C2F8E6
:102400001C41D2F81C11029102999C68186A196A41
:10241000205C01311962C2F81C05474AD2F84431E8
:10242000D3B10021454BC2F84411D2F8440193F8CE
:1024300029100090009800295AD19A6962B10022AF
:10244000586AD9689A610122CDE907108DF81820E1
:1024500006A8D3E9001290470BB030BD364AD2F837
:1024600004335B07BCD5D2F80831002BB8D0334B0E
:10247000996900293FD00021C2F80811D2F808114B
:1024800004910499D868596AD2F8182542545A6AB6
:10249000996901325A625A6A8A42A1D1DA69196885
:1024A000002A31D0D8685D6A1C699A6107900022C1
:1024B0000120DC60DA615A628DF8180008955B68CB
:1024C00006A898478CE71C4A0020C2F81C01D2F8E5
:1024D0001C210192019A00299FD09A688DF818005A
:1024E00008915861079206A8D3E90012904794E733
:1024F00001211160A1E7C2F80811D2F80801059086
:102500000598D2F81825C6E793F8292012B90A4A87
:1025100001205060084A4FF40170C2F80803586A5D
:10252000DA6808900024012007928DF818005A6894
:102530009C6106A8904753E700200040D406002085
:102540002DE9F041DFF8888107792C2606FB078604
:1025500082B096F82A30002B40F085800C46054664
:10256000574900681646FFF731FC002877D12368E9
:10257000591C0CD001224FF0A04102FA03F3C1F81C
:102580000835236803F5E073032241F823206368CC
:102590005A1C06D003F5E0734FF0A042002142F828
:1025A00023102B68A269C3F82425217D637D2A6846
:1025B0000B43C2F86C35D4E900122B68C3F814251C
:1025C000C3F80C15237D012B57D02C2303FB07F3F5
:1025D00008EB03025660226948F8032066B32A68B4
:1025E000237F384C0021C2F81C11D2F81C21009224
:1025F0002A68009EC2F84411D2F844112A68019159
:102600000199C2F804432A68120B51B25B010029F8
:10261000DBB22CDB01F1604101F5614181F800334F
:102620002B68294C1B0B5AB2520903F01F030121DE
:1026300001FA03F344F822302C232C6803FB0783B0
:10264000002204250121C4F8005583F82A10C3E9AB
:10265000062283F829205A6102B0BDE8F0811120DA
:1026600002B0BDE8F081082002B0BDE8F081174952
:1026700002F00F0211440B76D2E7A368591C06D072
:1026800003F5E0734FF0A042002142F82310E36805
:102690005A1C0DD001224FF0A04102FA03F3C1F8F9
:1026A0000835E36803F5E073032241F82320E3686B
:1026B0002A68A168C2F80835C2F8101585E700BF7E
:1026C000812300008000020000E100E0FCEC00E05B
:1026D000D4060020F8B52F4D047902682C2303FBA3
:1026E000045300215B68C2F8001583B103682A4ACD
:1026F000C3F808230368294E1B0B5AB25209203233
:1027000003F01F03012101FA03F346F822300368A6
:102710004FF0FF32D3F80CC5D3F81475D3F8081571
:10272000D3F81065C3F81425C3F80C250368944545
:10273000C3F80825C3F8102506D00CF5E07C4FF04F
:10274000A043022243F82C207B1C06D007F5E0773B
:102750004FF0A043022243F82720721C06D006F552
:10276000E0764FF0A043022243F826204B1C06D00F
:1027700001F5E0714FF0A043022243F821200068E8
:10278000FFF742FB2C2303FB0454002384F82A3078
:102790006360F8BDD40600208402020000E100E07E
:1027A000F0B5314E05792C2303FB056385B05C69D8
:1027B000002C4DD11C62996083F828405A61026850
:1027C000C2F81C41D2F81C11026802910121029F3B
:1027D00091600268D3F808C0C2F81C41D2F81C11FD
:1027E00001910199D3F820E0196A5F681CF80EE0A6
:1027F00001311962C2F81CE517B1204605B0F0BDE1
:102800001A6A5C690168944203D819E093F8282099
:102810000ABBD1F81C21002AF8D0C1F81C71D1F8EC
:102820001C210392039AD3F820E01A6A1CF80EE0E8
:1028300001321A62C1F81CE51A6AA242E9D30168A2
:10284000D1F81C31002BFBD00123CB60002003E02A
:10285000112005B0F0BD0F202C2303FB05650023DC
:102860006B6105B0F0BD00BFD4060020F0B5464B4B
:10287000D3F8242189B0002A55D00021C3F82411AF
:10288000D3F82421029202228DF81020029AD3F864
:1028900080043E4AC3F880040790D3F83C05D3680F
:1028A0000690C2E9061105931168536804A8984779
:1028B000354BD3F844214AB10021344AC3F84411BE
:1028C000D3F84401916901900198D9B92E4BD3F8FE
:1028D0002021AAB10021C3F82011D3F820012B4AEE
:1028E00000900098506958B1D3F84C059368069051
:1028F0008DF810105161059304A8D2E90013984790
:1029000009B0F0BDD3F83C35D1680693002400250A
:10291000012305918DF81030C2E90645D2E9001374
:1029200004A89847D2E7D3F810110029C0D0C3F803
:102930001021D3F810111548039103998169D3F838
:102940003C458C42B4D1C569C768D0E900168DB149
:10295000D3F800C285612CF02005C261C3F8005293
:102960000369C3600122CDE905748DF8102004A825
:10297000B0479DE701238561CDE905748DF81030DE
:1029800004A8B04794E700BF0020004000070020E3
:102990002DE9F0430779674E4FEAC70808EB0703B4
:1029A00006EB830385B093F82030002B40F096802F
:1029B0000D460446604900689146FFF707FA002873
:1029C00040F088802B68591C0CD001224FF0A041A8
:1029D00002FA03F3C1F808352B6803F5E07303220C
:1029E00041F823206B685A1C06D003F5E0734FF0C2
:1029F000A042002142F823102368AA69C3F82425C5
:102A0000297D6A7D23680A43C3F86C25D5E9003126
:102A10002268C2F80C35C2F814152B7D012B67D043
:102A200008EB07029200B318C3F804902B69B35067
:102A3000B9F1000F3DD021682B7F404D0022C1F835
:102A40001021D1F8101100912168DDF800C0C1F803
:102A50002021D1F8201101912168DDF804C0C1F8CE
:102A60002421D1F8241102912168DDF808C0C1F8B1
:102A70004421D1F84411226803910399C2F8045308
:102A80002268120B51B25B010029DBB22ADB01F193
:102A9000604101F5614181F800332368284D1B0B2B
:102AA0005AB2520903F01F03012101FA03F345F85A
:102AB00022304744226806EB8706002301240821C0
:102AC000C2F8001586F82040C6E90633736105B0E8
:102AD000BDE8F083112005B0BDE8F083082005B003
:102AE000BDE8F083174902F00F0211440B76D4E7DA
:102AF000AB68591C06D003F5E0734FF0A0420021EB
:102B000042F82310EB685A1C0DD001224FF0A0416F
:102B100002FA03F3C1F80835EB6803F5E07303220A
:102B200041F82320EB682268A968C2F80835C2F88A
:102B3000101575E7000700206D2800001003020043
:102B400000E100E0FCEC00E0F8B506792F4C0268EB
:102B5000F500AB1904EB830300215B68C2F8001594
:102B600083B103682A4AC3F808230368294F1B0B63
:102B70005AB25209203203F01F03012101FA03F374
:102B800047F8223003684FF0FF32D3F80CE5D3F852
:102B900014C5D3F80815D3F81075C3F80C25C3F87D
:102BA000142503689645C3F80825C3F8102506D0F8
:102BB0000EF5E07E4FF0A043022243F82E20BCF138
:102BC000FF3F06D00CF5E07C4FF0A043022243F813
:102BD0002C207A1C06D007F5E0774FF0A0430222A4
:102BE00043F827204B1C06D001F5E0714FF0A043BD
:102BF000022243F82120354404EB85040068FFF7E6
:102C000003F9002384F820306360F8BD000700203A
:102C10001003020000E100E001F06043B3F1005F47
:102C20002DD1F0B40579244EEF007C1906EB840415
:102C300082B06369002B39D16261A1600268C2F879
:102C40002031D2F820C10268CDF804C0DDF804C0FC
:102C5000C2F85831D2F8582100920268DDF800C05D
:102C6000D4F814C0C2F84415C2F848C5026801215E
:102C7000916062682AB1184602B0F0BC704710201B
:102C80007047036800E0AAB9D3F82011D3F858219F
:102C90000029F8D0002A14BF0F2000207B1906EB72
:102CA000830300225A6102B0F0BC7047112002B0C9
:102CB000F0BC70470F20F1E7000700202DE9F0433A
:102CC000002183B00846FDF749FC00283DD1FDF7FF
:102CD00035FCDFF890801E4B1E49A8EB03084FEA35
:102CE000D8084FEA084848F003084046FDF7A6FE1A
:102CF000FDF796FC0028FBD1174E184D184FDFF852
:102D00006890232496E80F000094012400F008FA4C
:102D100096E80F00CDE9004400F040FA25434FF457
:102D2000FA644FF47A40A847013CFAD196E80F00C4
:102D3000009700F063FA3A8849464046FDF752FF93
:102D4000FDF76EFC0028FBD1E9E7FEF7A9F9BEE725
:102D500018360000C8340000B8340000B034000059
:102D60002407002038360000E034000030B4B84BAF
:102D70001B78062B20D0B74B1B68062B00F08180F8
:102D8000B54AD2F8883043F47003C2F88830BFF3F4
:102D90004F8FBFF36F8F4FF01023D3F80022002A1C
:102DA000C0F28681D3F80432002BC0F28181AB4B94
:102DB000AB4A1A6030BC7047AA4B1B681D07DAD1BA
:102DC000A94B1B6803F0F002302A00F09B8003F04F
:102DD000E003402B00F09680A34B1B6803F0F00348
:102DE000302B00F0A080A04B1B6803F0F002302ACB
:102DF00077D003F0E003402B73D09B4B1B6803F0AC
:102E0000F003302B00F01481974B1B6803F0F002A5
:102E1000302A52D003F0E003402B4ED0924B1B6877
:102E200003F0F003302B00F0F5808F4B1B6803F0AC
:102E3000F003302B00F0D7808B4B1B6803F0F003BE
:102E4000502B7ED0884B1B6803F0F002302A23D031
:102E500003F0E003402B1FD0834B1B6803F0F0020C
:102E6000302A03D003F0E003402B84D14FF080439D
:102E7000D3F80024D20744BF6FF00102C3F8002446
:102E800079E77A4B1B68062B7FF47AAF784A136890
:102E900043F48063136073E7764B6D4A1B681278C6
:102EA000754903F04F03062A0B607FF464AF6D4B46
:102EB0001B6819077FF45FAFCEE7654A11784FF0C2
:102EC000804300220629C3F80C21C3F81021C3F85F
:102ED00038257FF450AF634B1B681B077FF44BAF63
:102EE0009CE7664B5A4A1B6812786549C3F3423324
:102EF000062A0B607FF43FAF5A4B1B6819077FF41B
:102F00003AAF7AE75F4B524A1B6812785E49C3F3C7
:102F10000423062A0B607FF42EAF524B1B681C075C
:102F20007FF429AF58E74A4B584A1B78584911603B
:102F3000062B7FF420AF4B4B1B6818077FF41BAFA9
:102F400051E74FF08052534BD2F80414C3F82015C8
:102F5000D2F80814C3F82415D2F80C14C3F82815B5
:102F6000D2F81014C3F82C15D2F81414C3F8301585
:102F7000D2F81814C3F83415D2F81C14C3F840154D
:102F8000D2F82014C3F84415D2F82414C3F8481515
:102F9000D2F82814C3F84C15D2F82C14C3F85015E5
:102FA000D2F83014C3F85415D2F83414C3F86015AD
:102FB000D2F83814C3F86415D2F83C14C3F8681575
:102FC000D2F840142248C3F86C15D2F844140278A1
:102FD000C3F87015062A7FF4CEAE224B1B68180783
:102FE0007FF4C9AE2EE71A4B2B4C1B782B492C488B
:102FF0002C4A0525256001250D6000243F21062B64
:10300000046011607FF4B7AE164B1B681C077FF499
:10301000B2AE11E70E4B244A1B780321062B116038
:103020007FF4A9AE0F4B1B681D077FF4A4AEFCE62E
:103030001E4A0749D368097823F080730629D360B4
:103040007FF499AE074B1B681A077FF494AEDBE65A
:10305000E00F00F03001001000ED00E01C00002047
:103060000090D003E40F00F0E80F00F034010010EE
:103070003C17004058020010E40E004044020010CB
:103080003C050040240300104035014074C0074057
:103090000DF0ADBA00C00040105600408856004008
:1030A0001856004014560040A0050040F0ED00E026
:1030B000184A0123C2F80435D2F80034002BFBD0A3
:1030C0004FF010231521134AC3F80012D2F8003430
:1030D000002BFBD04FF0102315210E4AC3F8041229
:1030E000D2F80034002BFBD000230A49C2F8043583
:1030F000D1F80034002BFBD0BFF34F8F0649074BAC
:10310000CA6802F4E0621343CB60BFF34F8F00BF85
:10311000FDE700BF00E0014000ED00E00400FA051B
:1031200070B588B06C469DF83050232D84E80F00B0
:1031300001D05C2D18D1154900230D7020461A25A9
:103140001B244FF0CC76CDE904451A46022404A98D
:10315000079306968DF81C40FEF73CFD78B901A850
:10316000FEF794FF08B070BD094B0A480A49C01A1F
:10317000C008000440F00300FDF760FCDBE7FDF74A
:103180008FFF01A8FEF782FF08B070BD2607002060
:103190001836000038360000F0340000F0B589B071
:1031A0009DF838409DF83C60012C02AC0BBF112506
:1031B00021254FF0130C4FF0230C0CBF10272027B4
:1031C00084E80F008EB1012E08BF3D468DF81F50D8
:1031D000094A0023117800930DF11F02012303A86F
:1031E000FEF764FF20B909B0F0BD8DF81FC0EFE70E
:1031F000FDF756FF09B0F0BD2607002030B5104D91
:1032000087B06C4684E80F0029780A9C022305AA3F
:1032100001A8FFF70BF878B99DF814109DF8153048
:10322000084A43EA012303EB83035B00A2FB032369
:10323000DB08238007B030BDFDF732FFECE700BFAD
:1032400026070020ABAAAAAA08B5074B044613B16B
:103250000021AFF30080054B1868836A03B19847DB
:10326000204600F047F800BF0000000010360000C4
:1032700070B50D4D0D4C641BA4100026A64209D15B
:103280000B4D0C4C00F038F8641BA4100026A6422D
:1032900005D170BD55F8043B98470136EEE755F867
:1032A000043B98470136F2E78000002080000020B0
:1032B00080000020840000200A44914200F1FF3386
:1032C00000D1704710B511F8014B03F8014F91423E
:1032D000F9D110BD02440346934200D1704703F870
:1032E000011BF9E7034613F8012B002AFBD1181A3A
:1032F00001387047FEE700BFF8B500BFF8BC08BC56
:103300009E467047F8B500BFF8BC08BC9E467047A3
:10331000FFFFFFFFFFFFFFFFFFFFFFFFFFFFFFFFBD
:1033200000000000000000000000D60106010000BF
:10333000210400008D0400001D04000075617274FA
:103340005F6C6F675F6261636B656E6400000000B5
:10335000E40500207F000000640600204261636BEA
:10336000656E647320666C757368656400000000A8
:1033700061707000D0330000FC330000B0330000F7
:10338000043400000C340000143400001C3400002D
:10339000243400002C340000202530327800000056
:1033A000202020007C000000256300000D0A0000A2
:1033B0001B5B313B33316D0025734C6F67732064A9
:1033C000726F70706564202825642925730D0A00CA
:1033D0001B5B306D00000000257300003C25733E30
:1033E0002025733A20000000000000003434000063
:1033F0003C340000443400004C3400001B5B313B83
:1034000033306D001B5B313B33326D001B5B313B56
:1034100033336D001B5B313B33346D001B5B313B41
:1034200033356D001B5B313B33366D001B5B313B2D
:1034300033376D006572726F720000007761726ED3
:10344000696E6700696E666F0000000064656275F2
:1034500067000000466174616C206572726F7200D3
:1034600053797374656D2072657365740000000094
:1034700030313233343536373839414243444546AA
:103480000338FDD870470000505253005457494D3F
:1034900000000000554152540000000055415254B4
:1034A00045000000000000000000000000000000D7
:1034B0000338FDD8704700000000000000300040D5
:1034C00000000000010000000D0A54574920424846
:1034D0003137353020737461727465642E000000DA
:1034E0004C696768743A20256420286C7578290037
:1034F00042483137353020496E76616C6964204925
:1035000032432061646472657373000000202020E0
:103510002020202020202828282828202020202083
:103520002020202020202020202020202088101053
:1035300010101010101010101010101010040404AF
:10354000040404040404041010101010101041416D
:10355000414141410101010101010101010101015B
:10356000010101010101010110101010101042426F
:10357000424242420202020202020202020202022B
:1035800002020202020202021010101020000000CB
:10359000000000000000000000000000000000002B
:1035A000000000000000000000000000000000001B
:1035B000000000000000000000000000000000000B
:1035C00000000000000000000000000000000000FB
:1035D00000000000000000000000000000000000EB
:1035E00000000000000000000000000000000000DB
:1035F00000000000000000000000000000000000CB
:1036000000000000000000000000000000000000BA
:08361000200000200000000072
:1036180088340000000000008C3400000000000026
:1036280094340000000000009C34000000000000FA
:083638007033000000000303E1
:1036400030330000000000003C3300001400002074
:10365000EC000020B4010020BC010020F400002098
:04366000180000004E
:0836640028CCFF7F01000000EB
:10366C00000000000020004000000000002000408E
:10367C000000000000000000FF0000000090D003DC
:10368C00000000000000000000000000000000002E
:10369C00000000000000000000000000000000001E
:1036AC00000000000000000000000000000000000E
:1036BC0000000000000000000000000000000000FE
:1036CC0000000000000000000000000000000000EE
:1036DC0000000000000000000000000000000000DE
:0836EC00690200004102000028
:0400000300000301F5
:00000001FF
