:100000000000042079030000610300006303000086
:1000100065030000670300006903000000000000A2
:100020000000000000000000000000006B03000062
:100030006D030000000000006F030000710300006A
:10004000730300007303000081160000E91600002E
:1000500073030000730300007303000073030000C8
:1000600073030000730300007303000073030000B8
:1000700073030000730300007303000073030000A8
:100080007303000073030000730300007303000098
:100090007303000073030000730300007303000088
:1000A0007303000073030000730300007303000078
:1000B0007303000073030000000000000000000054
:1000C0007303000073030000730300007303000058
:1000D0007303000073030000730300007303000048
:1000E00073030000730300007303000000000000AE
:1000F0000000000073030000000000007303000014
:1001000000000000000000000000000000000000EF
:1001100000000000000000000000000000000000DF
:1001200000000000000000000000000000000000CF
:1001300000000000000000000000000000000000BF
:1001400000000000000000000000000000000000AF
:10015000000000000000000000000000000000009F
:10016000000000000000000000000000000000008F
:10017000000000000000000000000000000000007F
:10018000000000000000000000000000000000006F
:10019000000000000000000000000000000000005F
:1001A000000000000000000000000000000000004F
:1001B000000000000000000000000000000000003F
:1001C000000000000000000000000000000000002F
:1001D000000000000000000000000000000000001F
:1001E000000000000000000000000000000000000F
:1001F00000000000000000000000000000000000FF
:10020000364937480A1A02D0072291438D463549AC
:1002100035480A1A06D00722914381F30988022241
:1002200082F3148831483249324A00F045F83248A6
:100230003249334A00F040F832483349334A00F03B
:100240003BF833483349344A00F036F833483449F0
:10025000344A00F031F834483449354A00F02CF87B
:1002600034483549354A00F027F8354835490022E9
:1002700000F02DF834483549002200F028F83448C1
:100280003449091A082903DB0022026004300160A6
:10029000314A90471F482049884205D002680430FF
:1002A00003B4904703BCF7E700208646EC460020E5
:1002B00000212A4A9047FEE7884207D0521A05D00B
:1002C000037801300B700131013AF9D1704788424F
:1002D00002D002700130FAE77047000000000420ED
:1002E00000E0032000000420000004200C2F000088
:1002F0000000002034000020D8030000D8030000D4
:10030000A62A00000C2F00000000002000000020A2
:10031000F42A0000F42A0000F42A0000F42A000065
:10032000F42A0000F42A0000F42A0000F42A000055
:100330000C2F0000402F000034000020340000206B
:1003400034000020BB060020BC060020BC060020B4
:10035000BC060020BC260020A10300004D250000A3
:10036000FEE7FEE7FEE7FEE7FEE7FEE7FEE7FEE765
:10037000FEE7FEE7704700BF1048804710484FF087
:100380000701884385460F4880470F48016841F4BC
:1003900070010160BFF34F8FBFF36F8FFFF730BF66
:1003A0000A480B490B4A884207D0521A05D00378F5
:1003B00001300B700131013AF9D17047750300002B
:1003C000000004201D27000088ED00E0F42A000052
:0803D0000000002000000020E5
:1003D800F0B595B01C46164608460D4600F0E9FFF4
:1003E8001A9B0D93CDE9086400242346082205A929
:1003F80028460A948DF82C400C9400F0F8FF079BCF
:100408000293BDF81830ADF80C30BDF81A30ADF8CD
:100418000E309DF814308DF8114003F00302012AC4
:100428001DD1BDF81440059EC3F3C203C4F3831461
:100438008DF81030A20008230EA9284600F0D7FF37
:10044800C6F3952608AB0093224602AB0EA93046A8
:1004580000F0C4FB284600F0B0FF15B0F0BD022A3A
:10046800F8D1BDF81640C3F3C203A4098DF81030C3
:100478000827082C264628BF08263B4632460EA9E0
:10048800284600F0B4FFA41B08AB02AA31460EA808
:10049800374400F007FC002CEBD1DBE7014B0122CD
:1004A8001A707047750000207047000070B50E4D37
:1004B80006460FCD88B06C460FC495E80F0084E857
:1004C8000F0008A9002E4FF00603084A41F8203D06
:1004D80008BF0022064801F091F808B100F038FC86
:1004E800044B1E7008B070BDF42A0000A50400007B
:1004F800000000203400002007B5044B0093044A94
:100508004023FFF765FF03B05DF804FB1D050000FD
:100518003500002038B50D4B0D4D002018700D48E2
:1005280004782D5DD2B21C4665B1043001F0C6FFD7
:1005380008B100F00DFC084B1A7812B12378002B93
:10054800FBD038BD0C3001F097FDF1E775000020B5
:1005580028060020000000203400002008B50848C4
:10056800084A0378D35C3BB1043001F051FF002006
:10057800BDE80840FFF79ABF0C3001F027FDF6E709
:1005880000000020280600200120FFF78FBF000090
:1005980008B5FFF7F9FF0421034800F08DFA034B73
:1005A80001225A7108BD00BFD02A000014000020A3
:1005B800037813F0040216D003F00303012B03D0D1
:1005C800022B09D0012070470A6800880232C0F364
:1005D800831002440A60F5E70B684288023303EB94
:1005E80092130B60EEE71046704700002DE9F04FBC
:1005F800484C87B00F460546861C0020019200F043
:10060800FFFB23683B60D4E90123134422680133CC
:100618009B1A04F21C4704F5836A04F21448B34297
:1006280019D3019A0023002A6CD0012262F3010336
:1006380043F0040365F389132168A2680A40033272
:100648000E44002044F82230266000F0DBFB012035
:1006580007B0BDE8F08F0121384600F0F5FB5046A1
:1006680000F008FC404600F005FC0DF11809606830
:10067800D4F808B049F8100D00EA0B00033004EB79
:1006880080004946FFF794FF029BB0B90BEA0302CA
:1006980004EB8202D16803919A1C013303EA0B0B25
:1006A80004EB8B0C01F00303012B0292DCF80CB075
:1006B80020D0022B04D083460BE00BEA0300DDE7D1
:1006C800BDF80E309B0903334FEA1B4B02EB930333
:1006D8000293404600F0D1FB08B1029B6360594683
:1006E800384600F0B1FBD4E90123134422680133F2
:1006F8009B1A94E7BDF80C30C3F383134FEA1B4BE6
:100708001344E5E7022262F3010343F0040365F3AF
:100718009F5391E7480100200B4B0C48FF2210B56E
:100728009A600022C3F81824C3E90022C3F81424ED
:1007380083F8202400F0F6FD044610B9044800F0C0
:1007480061FE204610BD00BF48010020E02A0000DD
:10075800342B000030B50A4C71B10A4A0A49121B01
:10076800D20800239A4201D1002030BD31F823502D
:10077800854202D00133F5E7034654F83300F4E725
:10078800A82A0000D02A000000000020094B0139E7
:1007980003EBC000032909D8DFE801F00A020406C8
:1007A80004207047007970474079704700207047EF
:1007B80002207047A82A0000034BD3E90030C31A6F
:1007C80058425841704700BF480100202DE9F043C6
:1007D80085B0FFF7F1FF0646002840F0F9807D4D0F
:1007E800C5F81804BFF34F8F6868AC6804AF47F8C2
:1007F800100D2040033005EB80003946FFF7D8FE86
:10080800009B18B1D5F81824002A5FD004EA030227
:10081800991C013305EB8202234005EB8303D26860
:10082800DB68029302F00303022B0192009162D16C
:10083800BDF8063068484FEA9318B8F1500FC14622
:1008480028BF4FF0500969F38F1309F10801ADF87B
:10085800063000F07FFD0746002800F0A48000F075
:10086800A8FD01A900230822384600F0B5FD00992B
:1008780024EA01060136B600B14535D95FFA89F98F
:100888007EB3F6B2A9EB0609214003315FFA89F479
:10089800B146524E05EB810108234A46384600F01E
:1008A8009BFD36B109F1080322463146384600F06F
:1008B80093FD009B08F1030803EB98030093D5F818
:1008C8001834002B4BD1D5F810445BE02A689A42C3
:1008D80004D86A60304605B0BDE8F08304EA030036
:1008E80088E73E493446D7E72140033108234A4682
:1008F80005EB8101DAE7012B55D1BDF80430364804
:10090800C3F38311062928BF062161F38913023135
:100918008900ADF8043000F01DFD0746002842D0DC
:1009280000F047FD0023082201A9384600F054FDD5
:100938000026BDF80420C2F38312B31C96424FEA86
:100948008303BCD200994A1C21400331009205EB75
:1009580081010422384600F03FFD0136E9E73846B8
:1009680000F02BFDFFF728FF80F00100C6B2B1E7C9
:10097800E3685B7923B1236839461B6820469847AA
:10098800E3681C68002CF3D1384600F016FD2046B9
:1009980000F036FAD5F818340BB9009B6B600020CC
:1009A80000F030FADEE7D5F8104454B90C4B0D4886
:1009B8000D49C01AC008000440F0020000F06EF8AB
:1009C800D0E7236820469B689847E3681C68ECE7F3
:1009D80000267FE748010020E02A0000540100209B
:1009E800A82A0000C82A0000402B00002DE9F74F74
:1009F800284C80460F46924601A9012218469B467C
:100A0800D4F80890FFF7F2FD88B3019D0026A91CD1
:100A18005E4506EB010234D100211F4800F0F4F9CD
:100A280080F310006A1C02EA090204EB8202000447
:100A380005EA0903033340EA1840D06014F823207C
:100A480068F3C50204F8232034F8232066F38912DA
:100A580024F8232054F82320012167F39F2244F827
:100A6800232061F301026FF3820204F8232094F833
:100A780020341BB1FFF7AAFE0028FBD103B0BDE864
:100A8800F08F09EA020204EB82025AF82630D3609A
:100A98000136BDE7480100206405002000231A46FE
:100AA800FFF7A4BF13B502AC012344F8042D224676
:100AB800FFF79CFF02B010BD30B50F49D1F81024E4
:100AC800002314463CB9C468237152B9C1F8100414
:100AD8002260184630BDE46825799D4206D0246816
:100AE800F0E7D268116821601060F2E701330A2B41
:100AF800E7D14FF0FF33ECE748010020094A38B549
:100B08000123D2F8104482F820341D4604B938BDB8
:100B1800E3685D71236820465B689847E3681C6852
:100B2800F4E700BF48010020037A052B10B50C46F6
:100B38000FD0437A23B1084A0849204600F0F7F954
:100B48000749204600F0F3F92046BDE8104000F0C0
:100B5800E3B9002AF8D0F3E78B2B0000902B0000B4
:100B6800B02B0000C38873B504460D4633B1144A50
:100B780000921449144A284600F0D9F9217A052927
:100B88001CD0637A4BB1A088FFF700FE0F4B1049C9
:100B980053F82020284600F0CAF9227A0D4BA08885
:100BA80053F822600021FFF7D5FD0B490346324672
:100BB800284602B0BDE8704000F0B9B902B070BD77
:100BC8008B2B00009B2B0000932B0000582B000060
:100BD800902B0000C02B0000B32B00002DE9F04340
:100BE80085B01F460C9D002306460C46904695F896
:100BF8000C902B7329463846FFF7B4FFB8F1060F5F
:100C080009D8DFE808F00412181F283340003146DD
:100C1800284600F08CF9002229463846FFF784FF61
:100C280085F80C9005B0BDE8F08322683146284667
:100C380000F07DF9EFE7D4E900233146284600F0BB
:100C480076F9E8E7A36800933146D4E900232846FB
:100C580000F06DF9DFE7E3680193A368009331467C
:100C6800D4E90023284600F062F9D4E72369029307
:100C7800E3680193A36800933146D4E9002328462A
:100C880000F055F9C7E76369039323690293E368A2
:100C98000193A36800933146D4E90023284600F065
:100CA80046F9B8E708292DE9F84F80460E46174659
:100CB8001C4636D8002593F80C901D73194610462B
:100CC800FFF750FFDFF87CA0DFF87CB0AE422AD9EE
:100CD80018F805205946204600F029F90135082D55
:100CE800F4D11649DFF864B0204600F020F9002559
:100CF800AE421DD918F805A0504601F03FFE002865
:100D080014BF52462E225946204600F010F90135EC
:100D1800082DEDD1012221463846FFF705FF84F85A
:100D28000C90BDE8F88F5146204600F000F9D5E751
:100D38000349204600F0FBF8E9E700BF862B0000D6
:100D4800842B0000822B00007C2B0000882B0000E5
:100D58001FB50021039001AA44F20100CDE9011159
:100D680000F004F805B05DF804FB000010B572B699
:100D7800FFF7C4FEFFF72AFD0028FBD1104B114CEA
:100D88001149E41AE408240444F00100FFF786FE40
:100D98000E4B1B68DB0700D500BE0D4944F002006E
:100DA800FFF77CFEBFF34F8F0A490B4BCA6802F46A
:100DB800E0621343CB60BFF34F8F00BFFDE700BF76
:100DC800A82A0000C82A00001F2C0000F0ED00E04F
:100DD8002B2C000000ED00E00400FA0572B6024A70
:100DE800136801331360704704060020034A136830
:100DF800013B136003B962B6704700BF04060020C8
:100E0800FFF7ECBFFFF7F2BF50E8002F0B4640E8B2
:100E1800003C9CF0000FF7D11046704750E8003FA7
:100E280043EA010240E8002C9CF0000FF6D110467E
:100E3800704750E8002F02EA010340E8003C9CF0AC
:100E4800000FF6D11046704750E8003F03EB01024F
:100E580040E8002C9CF0000FF6D11046704750E88F
:100E6800003FA3EB010240E8002C9CF0000FF6D1F4
:100E7800104670470121FFF7D1BF0021FFF7D9BF06
:100E880010B590B1D0E9012301689B1ADBB20A6062
:100E9800013BDBB2FF2B026802D10020107110BDAC
:100EA80011684C1C14600B70F2E70E20F7E738B598
:100EB80004460020FFF7A4FF22686368116899427E
:100EC80013D9481E106011F8015CE368218A01FB00
:100ED8000535A36811791B1ADBB2994200D2137148
:100EE8000020FFF78FFF284638BD0025F8E738B502
:100EF800054600200C46FFF783FF2A681368591C33
:100F08001160E968641A298AB4FBF1F41C700020A6
:100F1800BDE83840FFF776BF826810B504462AB1AD
:100F280043690168006998470023A36010BD0EB4A7
:100F380003B5039929B102AA04AB42F8043D00F0B5
:100F48006BF802B05DF804EB03B07047826830B408
:100F58000468551C8560A154D0E901329A4202D335
:100F680030BCFFF7D9BF30BC704700002DE9F84FFF
:100F78009946DDE90A431746824688460A4601260D
:100F8800BA420FD24E4538BF4E4613F0010B01D17D
:100F980064B900240125B9F1010F1AD909F1FF3903
:100FA8007D43F8E7B2FBF7F20136E9E79B070ED578
:100FB800B9F1000F0CBF30252025A642EAD2013C2A
:100FC80029465046FFF7C2FF002CF6D1E1E720255D
:100FD800F3E7B8FBF5F39F42E2D9DFF83890B8FBA6
:100FE800F5F3504619F8031005FB1388FFF7AEFF19
:100FF800B5FBF7F5002DF2D1BBF1000F02D00CB113
:10100800A64201D3BDE8F88F20215046013CFFF7E6
:101018009DFFF4E7382C00002DE9F74F0546904670
:101028000E46002900F03A8116F8011B002958D015
:10103800252940F0D180002702E047F00107164635
:10104800324612F8013B2D2BF7D0302B04D02B2B36
:1010580005D147F00407F2E747F00207EFE700245D
:101068002A2B06F101021BD1D8F80030191D1B6884
:10107800C8F800101C44164633782E2B1CD10136B4
:101088004FF0000A314611F8012BA2F1300009286F
:1010980014D80A2303FB0A23A3F1300A0E46F1E70A
:1010A80012F8013CA3F130010929E5D80A2101FB16
:1010B8000434303C1646D3E74FF0000A324612F8A3
:1010C800011B01F0FB0068281646F8D0692916D0E4
:1010D80054D8582970D00ED825297DD03378002BC4
:1010E800A2D12B7B002B00F0D980284603B0BDE8A5
:1010F800F04FFFF711BF632968D06429EED1D8F803
:101108000020D2F80090111D89EAE972C8F8001091
:10111800A2EBE9724FF0010B092A61DCD34538BF15
:10112800D3462CB1B9F1000F01DB790700D5013C9A
:10113800BA0702D5BAF1000F04D0FB0702D4002C7D
:1011480054D10024B9F1000F58DAC9F100092D2152
:101158002846FFF7FBFE07F00302022A05D1BAF181
:10116800000F02D1002C4DD10024CDE90047534691
:101178000A2249462846FFF7F9FEAFE7732954D0FB
:1011880016D87029AAD1D8F800301A1DC8F800203E
:10119800302128461C68FFF7D9FE78212846FFF73A
:1011A800D5FE00220823CDE9003221461022E1E7CE
:1011B80075292FD0782991D1D8F800100A1DC8F8C0
:1011C8000020CDE90047534610222CE0D8F8003023
:1011D8001A1D1978C8F800202846FFF7B7FE7DE7E2
:1011E8000A230BF1010B92FBF3F295E7A345A9D271
:1011F80020212846013CFFF7A9FEA0E77807AAD5D9
:101208002B21A5E7A345B0D230212846013CFFF7A2
:101218009DFEA7E7D8F80010CDE900470A1DC8F8D9
:10122800002053460A220968A4E7D8F800301A1D9E
:10123800C8F80020F907D3F8009012D54F46A7EB5D
:10124800090B17F8011B41B9A345BFF447AF20218B
:101258002846013CFFF77AFEF6E72846FFF776FEB8
:10126800EDE7B9F1000F17D0484601F0E8FB074653
:10127800BC4200D954B909F1FF3919F8011F0029F6
:101288003FF42CAF2846FFF761FEF6E720212846F9
:10129800013CFFF75BFEEBE74F46E9E703B0BDE82B
:1012A800F08F2DE9F047B0F806904479D2F800A005
:1012B8009DF8208009FB04F4043C06460AEB030071
:1012C800A0420F4688BFA4EB030A191DC2F800A06C
:1012D800B1FBF9F509FB15114DB9A9EB010454450A
:1012E80028BF5446BAF1000F04D1BDE8F08736682C
:1012F800013DF1E704317B1970182246B8F1000F5F
:101308000ED001461846AAEB040A01F03CFBD14571
:10131800254436684C464FF0000128BF5446E1E7A3
:101328001946F0E7FFF7ACBDF8B546790146721EDD
:101338000546002393422D6803D30024A64202D811
:10134800F8BD0133F6E70F682846FFF7D0FD0134F2
:101358003946F3E72DE9F843068ACD1C0746FFF71F
:10136800A6FD043E35440446B5FBF6F5F0B14FF44E
:101378008073EDB28380C680013D076081464FF0DF
:101388000008A84512D23846FFF791FD064648B135
:1013980063790133637108F10108C9F80000076037
:1013A8008146EEE72046FFF7BFFF34462046BDE8FA
:1013B800F88301210430FFF747BD10B50121044629
:1013C8000430FFF74CFD10F0FF0F04D12046BDE8B4
:1013D8001040FFF7A9BF10BD1FB504AC44F8042D99
:1013E800002200922246FFF75CFF04B010BD1FB533
:1013F80004AC44F8042D012200922246FFF751FF65
:1014080004B010BD836800225A609A60C3E90422C0
:10141800DA601A60704700001FB503788DF8003055
:1014280003798DF8043043798DF8053083688DF899
:101438000630C3688DF80730036902934369039344
:10144800054A064B684653F8213052F82110984750
:1014580005B05DF804FB00BF080600201006002058
:10146800024B4FF4807043F001031847502C0000E2
:101478001F2886BF00F01F00044A4FF0A042012336
:1014880003FA00F0C2F80805704700BF00030050D7
:101498002DE9F047904606783A4A42F826803A4ABB
:1014A80042F826304B7B07460C46A3B30868DFF8A2
:1014B800E0904FF0A04100F5E07340F20C6241F873
:1014C8002320636803F5E073002541F82320FFF724
:1014D800CFFF6068FFF7CCFF236803F5E07340F2A5
:1014E8000D6241F82320636803F5E0734FF0010AA9
:1014F80041F82320FFF7B4FF63681F2B8ABF4A46D1
:101508004FF0A04203F01F03D2F8102522FA03F38C
:10151800DB070DD515BBB8F1000F33461B4A214632
:1015280007F1040008BF0022BDE8F04700F07AB9CF
:1015380023681F2B86BF03F01F034A464FF0A042C3
:101548000AFA03F3C2F80C35FFF78AFF0135206861
:10155800FFF78EFFFFF784FF092DCDD163681F2B9E
:1015680086BF03F01F030A494FF0A041012202FA87
:1015780003F3C1F80C35FFF773FF6068FFF778FFD6
:10158800C9E700BF1006002008060020211400004B
:10159800000300501FB503788DF8003043680193AD
:1015A800037A8DF80830C3680393054A054B6846EB
:1015B80053F8213052F82110984705B05DF804FB24
:1015C80018060020200600201FB503788DF800308B
:1015D8004368019383688DF80830C3680393054A0C
:1015E800054B684653F8213052F82110984705B04A
:1015F8005DF804FB1806002020060020F0B5194B02
:101608000678DFF870E043F82620174B94460A69FD
:1016180043F826204B7F0EF806300C4607460FCCC1
:1016280089B06D460FC594E80F0085E80F001EF8D5
:101638000630049653B1BCF1000F0C4A694608BF46
:101648000022381D00F002FE09B0F0BDBCF1000F09
:10165800074A694608BF002207F10C0000F0DCFBCE
:10166800F2E700BF20060020180600209D150000A4
:10167800D115000028060020014B1B68184700BF41
:101688002C06002038B50A4B98420D460CD1002094
:10169800FFF7B6FB074B1C7914B901221D601A71BC
:1016A8000020FFF7AFFB0CB9002038BD1120FCE784
:1016B800002000402C060020034B984201BF034B3A
:1016C80000221A601A717047002000402C06002082
:1016D8000023435082B043580193019B02B07047E6
:1016E800F0B54C4A4C4CD2F8243187B01546A3B11A
:1016F8004FF492711046FFF7EBFFD2F8043163B94B
:10170800A368C2F808330223A360A368C2F80433AD
:1017180001231362536107B0F0BDD5F80431002BE3
:1017280049D03E4F3B484FF48271FFF7D1FF0FCFAE
:1017380001AE0FC63B68336094F82E307BB1237B33
:10174800012B0CBFD5F83C25D5F84C250292022B6D
:10175800304B0CBFD3F83C35D3F84C3503934FF4DA
:10176800B0712C48FFF7B4FF4FF4AE712948FFF76A
:10177800AFFF94F8303013B194F82E303BB1254BBD
:101788000022C3F80022A260254AC3F80823214A90
:10179800D2F8C434C2F8C4349A0736D501238DF878
:1017A800003094F830300BB984F82F30D4E9003188
:1017B80068469847AFE74FF4A4711648FFF788FFCB
:1017C800237B83B9154F0FCF01AE0FC63B6833603B
:1017D80094F83030002BDAD1C5F80032A360104BF2
:1017E800C5F80833D3E74FF40073C5F8003240F268
:1017F8000223A36003F1CE73C5F80833A368C5F8C4
:1018080004330123AB602B6285E713F0040318BF90
:101818000223C4E7003000403406002040060020C0
:1018280002029C012DE9F84F0579404C4FF0340A2B
:101838000AFB05FA04EB0A079B4697F82D30804609
:101848000E469146002B6CD139490068FFF71AFF04
:10185800002868D13268737B87F832301F2A8CBF22
:1018680002F01F031346B860C7F804B087F82F00CA
:1018780087F8300003F5E07188BF2E4F44F80A90CE
:1018880098BF4FF0A04740F20C6347F821307168C9
:101898001F291F468CBF01F01F030B4603F5E07399
:1018A8008CBFDFF890C04FF0A04C4CF82370D8F8EC
:1018B8000030C3F80825B268C3F80C15C3F824250E
:1018C800B9F1000F25D01A0B53B2317B002BA8BFFA
:1018D80003F16046D2B24FEA5313B8BF02F00F07C4
:1018E8004FEA4111B4BF144E06F561464FEA83032F
:1018F800C9B203F16043B4BFF15586F8001303F58C
:10190800614302F01F02012101FA02F2C3F88021AB
:101918001A60342303FB0544012384F82D30BDE805
:10192800F88F0820FBE71120F9E700BF34060020F4
:10193800E91600000003005014ED00E00268037986
:101948000621C2F80015044A342101FB03230222B0
:1019580083F82D20704700BF340600202DE9F84396
:10196800CB6803F06043B3F1005F0D46904603D0A7
:1019780010221046BDE8F8830779944E0468944B0A
:10198800C4F808334FF0340C0CFB076C9CF82F306C
:101998002BB1DCF80830C4F804331122E9E712F05F
:1019A800140F0CBF012300238CF82F308946B9E8A7
:1019B8000F000CF10C0EAEE80F00D9F80030CEF88D
:1019C8000030C8F300138CF830306B78C4F88835D1
:1019D8004FF482712046FFF77BFE4FF49271FFF7B8
:1019E80077FE18F0010318BF0123C4F8503518F02A
:1019F800020318BF0123C4F840352B78032B00F2EB
:101A0800C380DFE803F083AB67022B6903F0604310
:101A1800B3F1005FACD14FF48073EA68C4F80032C8
:101A28006B68C4F844254FF4A871C4F84835FFF72B
:101A38004FFE4FF4B071FFF74BFE4FF4A471FFF760
:101A480047FE01232362A360D4F85031002BFBD05A
:101A58004FF4A8712046FFF73BFEAB682A69C4F82B
:101A68004425C4F848355B4A342303FB07639A606E
:101A78004FF482730821002218F0080F04D1287847
:101A880003281CBF01206050342179437018715815
:101A980000297ED1012523441968002900F0868099
:101AA8003421D4F8C434C4F8C43401FB07660021D7
:101AB80086F82F10002B3FF45CAF13F0020F48F2AA
:101AC800012208BF032213F0040F48F2022318BFB3
:101AD8001A464EE76B68EA68C4F84425C4F84835E6
:101AE8002B6903F06042B2F1005F7FF441AFAA684E
:101AF800C4F834354FF48453C4F83825C4F8003298
:101B0800342303FB076340F20222B0E76B68EA68FC
:101B1800C4F8442518F0200FC4F848354FF03403B2
:101B280010D003FB07634FF48072C4F80022294ADF
:101B38009A604FF4A471FFF7CBFD4FF4A473012210
:101B4800226297E74FF4007203FB0763C4F8002290
:101B580040F202229A604FF48273F0E76B68EA68F9
:101B6800C4F83425C4F838354FF48053C4F800322B
:101B7800342303FB076340F202229A6001232362A5
:101B880000214FF4827376E74FF48273082107220D
:101B980072E718F0040F1CBF4FF4007383603423FE
:101BA80003FB0766B368C4F80433E2E6D4F82411EB
:101BB80000293FF471AF4FF492712046FFF788FD7A
:101BC80025624FF48273656165E700BF3406002023
:101BD80002029C0100020400F0B587B004460F46DB
:101BE80015460021142201A81E4600F0F5FE9DF8B6
:101BF80030308DF80570002B14BF2022002201A977
:101C0800204602960495FFF7A9FE07B0F0BDF0B58F
:101C180087B004460F461546002112220DF1060032
:101C28001E4600F0D9FE0123002201A920468DF8A6
:101C380004308DF8057002960495FFF78FFE07B003
:101C4800F0BD0023435082B043580193019B02B07A
:101C580070470A4610B54FF48E71FFF7F2FF136A0A
:101C68009168C95C136A01331362C0F81C1510BD72
:101C78008B690A4610B54FF4847123B9FFF7E1FF69
:101C8800D0F8183510BDFFF7DCFF536AD168D0F8DB
:101C98001805C854536A01335362F3E71FB501238B
:101CA8008DF80030044BCDE90110D3E900126846E5
:101CB800904705B05DF804FB6806002030B54C4A33
:101CC800D2F8043313F4007F85B015464FD0D2F80C
:101CD8002431002B4BD04FF492711046FFF7B1FF1F
:101CE8004FF40173C2F80833424B93F8291009B92D
:101CF800012151603E4902228DF80020D1F880244C
:101D0800C1F8802403929A690292DA68019200224B
:101D1800C3E906226846D3E9001290473448D0F850
:101D28001C315BB133490A6A4B699A420A464BD265
:101D380091F82830002B47D1FFF78BFF2C4AD2F8B7
:101D4800443193B14FF4A2711046FFF77AFF294B43
:101D580093F8291009B1012111609A692AB100226A
:101D68009A61586AD968FFF799FF05B030BDD5F870
:101D780004335B07D2D5D5F80831002BCED01D4CE3
:101D88001B482146FFF774FF636AA2699A422346FB
:101D9800C4D1E269E1684AB12369E3600023606A5B
:101DA800A261E3616362FFF779FFB7E794F829203E
:101DB8000AB901226A600E4A4FF40170C2F808039A
:101DC80000229A61586AEEE74FF48E710848FFF7CF
:101DD80038FF51690029B1D00023029191688DF82C
:101DE8000030019153616846D2E900139847A5E78E
:101DF80000200040680600201F2886BF00F01F0052
:101E0800044B4FF0A04300F5E070022243F8202075
:101E1800704700BF000300502DE9F843664B047972
:101E280091462C2202FB0432064692F82A200D46DF
:101E38009846002A40F0BC8060490068FFF722FC01
:101E48000746002840F0B68029684A1C10D01F2990
:101E580087BF01F01F035A4A0B464FF0A0420120EA
:101E6800984003F5E073C2F80805032042F8230000
:101E78006868431C0DD01F288BBF00F01F03034662
:101E88004F4A4FF0A04203F5E0734FF0000C42F8C0
:101E980023C03368AA6995F814C0C3F824256A7D5D
:101EA800BCF1010F4CEA0202C3F86C25C3F8140513
:101EB800C3F80C152BD1A968481C0DD01F298BBF5E
:101EC80001F01F020A463E484FF0A04002F5E072BA
:101ED8004FF0000C40F822C0E868421C13D01F28BD
:101EE80087BF00F01F0C364A84464FF0A0424FF0DF
:101EF800010E0EFA0CFE0CF5E07CC2F808E54FF076
:101F0800030E42F82CE0C3F80805C3F810152C237B
:101F1800634308EB0302C2F804902A6948F80320D7
:101F2800B9F1000F31D04FF48E7130682D7FFFF773
:101F380088FE30684FF4A271FFF783FE3268214BA8
:101F4800C2F80433120B53B2002BA8BF03F1604050
:101F58004FEA53134FEA4511BABF1B4802F00F0569
:101F680000F561404FEA8303C9B203F16043B4BF8F
:101F7800415580F8001303F5614302F01F02012167
:101F880001FA02F2C3F880211A6033680422C3F808
:101F980000252C2303FB04830022C3E9062283F8CF
:101FA80029205A61012283F82A203846BDE8F8839F
:101FB8000827FAE71127F8E768060020C51C000083
:101FC800000300508000020014ED00E02DE9F0410C
:101FD80003680479254D0022C3F800252C2202FB52
:101FE80004520646526872B1214AC3F80823190BF5
:101FF8004AB20120520901F01F0100FA01F1203212
:102008001C4840F82210D3F80C05D3F81485D3F8EF
:102018000815D3F810754FF0FF329042C3F8142515
:10202800C3F80C25C3F80825C3F8102501D0FFF71D
:10203800E3FEB8F1FF3F02D04046FFF7DDFE7A1C11
:1020480002D03846FFF7D8FE4B1C02D00846FFF7EF
:10205800D3FE3068FFF730FB2C2303FB0454002326
:1020680084F82A306360BDE8F08100BF680600206C
:102078008402020000E100E02DE9F843224F0679CE
:102088004FF02C0909FB067480466569002D37D18D
:102098006261A16025624FF48E71006884F828504F
:1020A800FFF7CFFDD8F80000012383602146FFF732
:1020B800D0FD6368A1462BBBD8F80050226A63693B
:1020C8009A4212D3D8F80030D3F81C21002AFBD04A
:1020D8000122DA6000202C2303FB067600237361BB
:1020E800BDE8F88394F8283043B9D5F81C31002BA3
:1020F800F8D049462846FFF7ACFDDFE70F20EAE7AE
:102108001120EDE72846EBE768060020002343503E
:1021180082B043580193019B02B070471FB5012359
:102128008DF80030054B8DF8080001916846D3E919
:102138000012904705B05DF804FB00BF940600202C
:102148007FB5384AD2F82461002E49D010464FF4A2
:102158009271FFF7DBFF02238DF80030D2F880344C
:10216800C2F880340393D2F83C358DF808302E4BF2
:10217800DA6801920022C3E906226846D3E9001210
:102188009047284AD2F8443173B14FF4A2711046EF
:10219800FFF7BCFF244B996931B100219961D2F84E
:1021A8003C05D968FFF7BAFF1E4AD2F82031ABB117
:1021B8004FF490711046FFF7A9FF1B4B596969B19D
:1021C800D2F84C158DF80810002299688DF8002077
:1021D80001915A616846D3E90012904704B070BD76
:1021E800D2F81031002BCCD04FF488711046FFF78D
:1021F8008DFF0D4BD2F83C0599698842C1D1DC6945
:10220800D96864B1D2F8005225F02005C2F800520E
:102218001A699C61DA60DE61FFF780FFB1E79C61B3
:10222800FAE700BF00200040940600201F2886BF60
:1022380000F01F00044B4FF0A04300F5E0700222AD
:1022480043F82020704700BF000300502DE9F843F1
:102258006A4B06799146242202FB0632044692F81C
:1022680020200D469846002A40F0C4806449006842
:10227800FFF708FA0746002840F0BE802868421C8D
:1022880010D01F2887BF00F01F035E4A03464FF097
:10229800A0420121994003F5E073C2F80815032113
:1022A80042F8231069684B1C0DD01F298BBF01F021
:1022B8001F030B46534A4FF0A04203F5E0734FF05B
:1022C800000C42F823C02368AA6995F814C0C3F823
:1022D80024256A7DBCF1010F4CEA0202C3F86C2583
:1022E800C3F80C05C3F814152BD1A968481C0DD0E8
:1022F8001F298BBF01F01F020A4642484FF0A04039
:1023080002F5E0724FF0000C40F822C0E868421C69
:1023180013D01F2887BF00F01F0C3A4A84464FF09D
:10232800A0424FF0010E0EFA0CFE0CF5E07CC2F84C
:1023380008E54FF0030E42F82CE0C3F80805C3F88F
:1023480010152423734308EB0302C2F804902A698A
:1023580048F80320B9F1000F3BD04FF4887120688A
:102368002D7FFFF7D3FE4FF490712068FFF7CEFE64
:102378004FF492712068FFF7C9FE20684FF4A271EC
:10238800FFF7C4FE2268204BC2F80433120B53B285
:10239800002BA8BF03F160404FEA53134FEA4511E1
:1023A800BABF1A4802F00F0500F561404FEA8303EF
:1023B800C9B203F16043B4BF415580F8001303F577
:1023C800614302F01F02012101FA02F2C3F88021E1
:1023D8001A6023680822C3F80025242303FB068318
:1023E8000022C3E906225A61012283F820203846D8
:1023F800BDE8F8830827FAE71127F8E794060020D4
:1024080049210000000300501003020014ED00E011
:102418002DE9F04103680479254D0022C3F8002511
:10242800242202FB04520646526872B1214AC3F8BC
:102438000823190B4AB20120520901F01F0100FAC2
:1024480001F120321C4840F82210D3F80C05D3F8CB
:102458001485D3F80815D3F810754FF0FF32904261
:10246800C3F80C25C3F81425C3F80825C3F81025AC
:1024780001D0FFF7DBFEB8F1FF3F02D04046FFF77F
:10248800D5FE7A1C02D03846FFF7D0FE4B1C02D08E
:102498000846FFF7CBFE3068FFF70EF9242303FB4D
:1024A8000454002384F820306360BDE8F08100BF45
:1024B800940600201003020000E100E001F06043F0
:1024C800B3F1005F2DE9F041074632D11C4B067984
:1024D800242505FB063598466C6964BB6A61A960CA
:1024E80000684FF49071FFF711FE4FF4AC71386833
:1024F800FFF70CFE3B686A69A968C3F84415C3F87E
:10250800482501229A606A68BAB9D3F82011D3F82D
:10251800582149B9002AF8D00F20242303FB068646
:1025280000237361BDE8F081002A14BF0F2000204A
:10253800F3E71020F6E71120F4E72046F2E700BFA2
:10254800940600202DE9F74300210846FEF7E4F839
:1025580008B1FEF7FDFBFEF71BF81E4D1E4B1F4989
:10256800ED1AED082D0445F003052846FEF796FA06
:10257800FEF72CF906460028FAD1194CDFF86880D6
:10258800DFF868902323009394E80F0000F030F8F8
:102598000123CDE9006394E80F00124E00F060F8C3
:1025A80046F001064FF4FA774FF47A40B047013FFE
:1025B800FAD194E80F00CDF8008000F07BF8B8F865
:1025C800002049462846FEF76DFAFEF7FFF8002876
:1025D800FBD1E7E7C82A0000A82A0000882C0000E1
:1025E800782C0000702C0000B8060020A62C0000F3
:1025F80030B589B06C469DF83050232D84E80F0023
:102608000BD05C2D09D01248124B1349C01AC008D0
:10261800000440F00300FEF741FA104B05210622A2
:10262800CDE904124FF0CC721D70069200230222ED
:10263800079304A98DF81C2020461A46FEF728FFA8
:1026480008B1FEF785FB01A8FFF778F909B030BD9E
:10265800C82A0000A82A0000B02C0000BA060020F2
:1026680010B588B002AC84E80F009DF828309DF8BA
:102678002C20012B0CBF1023202392B1012A13D147
:102688008DF81F300A4B1978002300930DF11F02B3
:10269800012303A8FFF7A0FA08B1FEF759FB08B019
:1026A80010BD43F00303EBE743F00103E8E700BF85
:1026B800BA06002010B586B06C4684E80F000C49B5
:1026C800022305AA097801A8FFF7A1FA08B1FEF7C5
:1026D8003FFB9DF815309DF8142043EA02220A2397
:1026E80053430C2293FBF2F3089A138006B010BDF3
:1026F800BA060020054B1B68082B01BF044B18685D
:10270800B0FA80F0400918BF00207047300100106F
:102718003401001008B54FF080430022C3F80C21A3
:10272800C3F81021C3F838254FF0805203F5404311
:10273800D2F80414C3F82015D2F80814C3F82415E5
:10274800D2F80C14C3F82815D2F81014C3F82C15B5
:10275800D2F81414C3F83015D2F81814C3F8341585
:10276800D2F81C14C3F84015D2F82014C3F8441545
:10277800D2F82414C3F84815D2F82814C3F84C1515
:10278800D2F82C14C3F85015D2F83014C3F85415E5
:10279800D2F83414C3F86015D2F83814C3F86415A5
:1027A800D2F83C14C3F86815D2F84014C3F86C1575
:1027B800D2F84424C3F87025FFF79CFF10B1384BBA
:1027C800384A1A60FFF796FF18B1374BFB22C3F857
:1027D8001825FFF78FFF48B13449354B0A681B6845
:1027E80022F00F0203F00F0313430B60FFF782FF81
:1027F80018B1304B4FF400721A604FF08043D3F891
:102808000024D20744BF6FF00102C3F800242A4A0B
:10281800D2F8883043F47003C2F88830BFF34F8F82
:10282800BFF36F8F4FF01023D3F80022002A03DB89
:10283800D3F80432002B2FDA204B0122C3F80425E9
:10284800D3F80024002AFBD04FF010221221C2F83E
:102858000012D3F80024002AFBD04FF010231222D4
:10286800C3F80422154B1A46D3F800140029FBD0EC
:102878000021C3F80415D2F80034002BFBD0BFF3B5
:102888004F8F0D490E4BCA6802F4E0621343CB60C8
:10289800BFF34F8F00BFFDE70A4B0B4A1A6008BD14
:1028A8008C5600404881030000F00040E40E0040D0
:1028B800580200104096024000ED00E000E00140A0
:1028C8000400FA051C0000200090D0037F2805D8DA
:1028D800034B185C034B5B5C184070470020704743
:1028E800CC2C00004C2D0000A0F16103192B98BFDF
:1028F80020387047A0F14103192B98BF203070474A
:102908007F2805D8034B185C034B5B5C1840704765
:1029180000207047CC2C00004C2D0000A0F1610372
:10292800192B98BF20387047A0F14103192B98BF85
:10293800203070477F299ABF017001206FF02E0068
:1029480070475AB10A787F2A0AD800B1026000217C
:1029580019605960501A18BF01207047002070474D
:102968006FF02E007047000008B5034B5B689B684A
:102978001B68984708BD00BF2000002008B5092142
:10298800FFF7F2FF08BD844640EA010313F0030F86
:1029980018D18446202A0BD32DE9F007B1E8F807AF
:1029A800A0E8F807A2F12002202AF7D2BDE8F00734
:1029B800042A07D351F8043B40F8043BA2F104026F
:1029C800042AF7D2002A05D011F8013B00F8013B90
:1029D800013AF9D1604670478446002A2DD010F09C
:1029E800030F04D000F8011B013A26D0F7E7C9B25B
:1029F80041EA012141EA0141202A12D3A2F1200231
:102A08002DE9F0030B460C460D460E460F46884648
:102A18008946A0E8FA03203AFBD2BDE8F003203249
:102A28000BD0042A05D340F8041B043A05D0042A25
:102A3800F9D200F8011B013AFBD16046704700F15A
:102A4800010110F0030F11D010F8012B002A23D038
:102A580010F0030F0AD010F8012B002A1CD010F038
:102A6800030F03D010F8012B002A15D02DE97000B0
:102A78004FF001324FF0803350F8044BA4EB0205BD
:102A880025EA04051D4000D1F6E7A0F1040070BC5A
:0E2A980010F8012B002AFBD1A0EB01007047C3
:102AA800562C0000000000005A2C00000000000016
:102AB8005F2C000000000000642C000000000000F3
:082AC800512B00000000030384
:102AD000142B000000000000202B00001400002038
:102AE00078000020400100204801002080000020E4
:042AF00018000000CA
:102AF400FFFFFFFFFFFFFFFFFFFFFFFFFFFFFFFFE2
:102B040000000000000000000000D60106010000E3
:102B14000105000065050000B104000075617274D0
:102B24005F6C6F675F6261636B656E6400000000D9
:102B34006C0500207F000000EC0500204261636BFF
:102B4400656E647320666C7573686564006170708B
:102B5400000000008B2B0000D42B0000932B0000FE
:102B6400DC2B0000E42B0000EC2B0000F42B000015
:102B7400FC2B0000042C000020253032780020209B
:102B840020007C002563001B5B306D002573001B57
:102B94005B313B33316D0025734C6F677320647276
:102BA4006F70706564202825642925730D0A003C24
:102BB40025733E2025733A20000000000000000029
:102BC400252C00000C2C0000142C0000192C0000F3
:102BD4001B5B313B33306D001B5B313B33326D008B
:102BE4001B5B313B33336D001B5B313B33346D0076
:102BF4001B5B313B33356D001B5B313B33366D0062
:102C04001B5B313B33376D007761726E696E670011
:102C1400696E666F00646562756700466174616C15
:102C2400206572726F720053797374656D207265DA
:102C340073657400303132333435363738394142B4
:102C44004344454600000000000000000338FDD85E
:102C54007047505253005457494D00554152540047
:102C64005541525445000000000000000338FDD8CF
:102C74007047000000000000003000400000000029
:102C8400010000000D0A5457492073656E736F727A
:102C9400206578616D706C6520737461727465640D
:102CA4002E004C696768743A202564004248313725
:102CB400353020496E76616C696420493243206165
:102CC400646472657373000020202020202020207B
:102CD4002068282828282020202020202020202088
:102CE4002020202020202020481010101010101028
:102CF4001010101010101010848484848484848430
:102D04008484101010101010108181818181810140
:102D1400010101010101010101010101010101019F
:102D2400010101101010101010828282828282022E
:102D3400020202020202020202020202020202026F
:102D440002020210101010200007032004170201D1
:102D54000857104080000000002F0000C42D000020
:102D6400D82E000053756E004D6F6E0054756500CB
:102D740057656400546875004672690053617400B5
:102D8400000000004A616E00466562004D617200F9
:102D9400417072004D6179004A756E004A756C008D
:102DA40041756700536570004F6374004E6F760081
:102DB4004465630000000000414D00504D000000D8
:102DC400FC2E0000F82E0000F82E0000F82E000063
:102DD400F82E0000F82E0000F82E0000F82E000057
:102DE400F82E0000F82E0000FFFFFFFFFFFFFFFF9B
:102DF400FFFFFFFFFFFF0000382E0000682D0000DA
:102E0400742E0000882D0000BC2D00001C2E000034
:102E1400CC2E0000282E0000256D2F25642F257947
:102E2400000000002561202562202565202554200E
:102E34002559000053756E646179004D6F6E6461AD
:102E4400790054756573646179005765646E6573C0
:102E540064617900546875727364617900467269BB
:102E640064617900536174757264617900000000D3
:102E74004A616E7561727900466562727561727934
:102E8400004D6172636800417072696C004D617934
:102E9400004A756E65004A756C79004175677573F3
:102EA400740053657074656D626572004F63746F6E
:102EB400626572004E6F76656D626572004465638B
:102EC400656D62657200000025483A254D3A255328
:102ED40000000000D5280000F1280000FD280000B3
:102EE4000929000025290000312900003D2900009E
:102EF4004B290000000000002E00000043000000E9
:082F0400504F53495800000032
:102F0C0000000000002000400000000000200040F5
:102F1C000000000000000000FF0000000090D00343
:102F2C005C2D00005C2D00005C2D00005C2D000071
:042F3C005C2D000008
:04000003000003797D
:00000001FF
